:1000000064C073C072C071C09DC06FC06EC06DC04F
:100010006CC06BC089C056C155C154C153C152C1D7
:1000200051C150C14FC14EC14DC14CC179C178C100
:1000300077C176C175C174C173C172C171C170C11C
:100040006FC16EC153C152C151C150C14FC14EC1E8
:100050004DC14CC14BC14AC149C162C161C160C1FE
:100060005FC13FC13EC13DC13CC13BC13AC139C185
:1000700038C137C136C146C145C144C143C142C17F
:1000800041C140C13FC13EC142C141C140C13FC168
:100090003EC13DC13CC13BC13AC139C138C140C17B
:1000A0003FC13EC13DC13CC13BC13AC139C138C16C
:1000B00037C136C131C130C12FC12EC12DC12CC1B4
:1000C0002BC12AC129C128C127C111271FBFCFE5D4
:1000D000D0E0DEBFCDBF20E0A0E4B0E001C01D93C2
:1000E000A834B207E1F7DED02EC18ACF4BB341600E
:1000F0004BBB4DB3486F4DBB4DB347604DBB789480
:10010000089547A1442349F099BD88BD45E04DBD00
:1001100041E04BBD42B1446042B9089542B14B7FCA
:1001200042B91BBD1DBD08951F930F930FB70F93C9
:1001300010E04F9349B346A94F910F910FBF0F9114
:100140001F9118951F930F930FB70F9310E04F93C4
:100150005F9347A1413019F417A943A91BC047A1D8
:10016000423028F040A1413021F040E003C040E09F
:1001700001C041E0442321F047A1415047A90AC0F2
:1001800047A1423038F047A1415047A943EB5FE116
:1001900059BD48BD5F914F910F910FBF0F911F91B6
:1001A000189542E24EBD49E14DBD49EE51E053BDC7
:1001B00042BD42B553B55695479555BD44BD0895CA
:1001C0001EBD1BBD15BD14BD13BD12BD1DBD0895C3
:1001D00047A14F5F47A91BBD41A1413011F540A97F
:1001E00048B559B555A944A9DCDF41B1426041B9D0
:1001F00041EB52EA41505040E9F700C0000041B1E4
:100200004D7F41B941EB52EA41505040E9F700C0FF
:100210000000D6DF84A195A18C5A9E4F72DF10A9F1
:100220000895BFDF41B1426041B941EB52EA41500C
:100230005040E9F700C0000041B14D7F41B941EBAA
:1002400052EA41505040E9F700C00000B9DF08957C
:1002500041B1426041B941E45FEE41505040E9F79D
:1002600000C0000041B14D7F41B94DE85FE8415009
:100270005040E9F700C000000895CF9392DFC0E03E
:10028000C33068F4E5DFE4DFE3DFE2DF41E45FEEA3
:1002900041505040E9F700C00000CF5FF1CF90DF40
:1002A000CF91089523DF41B1466041B946A150E0A6
:1002B000E42FF52FE353F10BEA35F10788F5E55FFD
:1002C000FF4F099442A1413029F484A195A119DF7F
:1002D00012A903C083EB9FE114DF41E041A978DF5D
:1002E0001FC01CDF11A917A9C8DF1AC042A1411302
:1002F00017C06EDF48B559B555A944A90FDF41E0D5
:1003000042A90EC047A14F5F47A962DF09C047A1BC
:100310004B5F47A95DDF04C047A1465F47A958DF8F
:1003200047A1411305C043A1413021F040E003C083
:1003300040E001C041E0442309F4B8CFEFDE11A949
:0A03400013A99BDFB3CFF894FFCFA1
:00000001FF
